{"abi":[{"type":"constructor","inputs":[{"name":"name","type":"string","internalType":"string"},{"name":"symbol","type":"string","internalType":"string"},{"name":"initialSupply","type":"uint256","internalType":"uint256"}],"stateMutability":"nonpayable"},{"type":"function","name":"RECEIVE_WITH_AUTHORIZATION_TYPEHASH","inputs":[],"outputs":[{"name":"","type":"bytes32","internalType":"bytes32"}],"stateMutability":"view"},{"type":"function","name":"TRANSFER_WITH_AUTHORIZATION_TYPEHASH","inputs":[],"outputs":[{"name":"","type":"bytes32","internalType":"bytes32"}],"stateMutability":"view"},{"type":"function","name":"allowance","inputs":[{"name":"owner","type":"address","internalType":"address"},{"name":"spender","type":"address","internalType":"address"}],"outputs":[{"name":"","type":"uint256","internalType":"uint256"}],"stateMutability":"view"},{"type":"function","name":"approve","inputs":[{"name":"spender","type":"address","internalType":"address"},{"name":"value","type":"uint256","internalType":"uint256"}],"outputs":[{"name":"","type":"bool","internalType":"bool"}],"stateMutability":"nonpayable"},{"type":"function","name":"authorizationState","inputs":[{"name":"authorizer","type":"address","internalType":"address"},{"name":"nonce","type":"bytes32","internalType":"bytes32"}],"outputs":[{"name":"","type":"bool","internalType":"bool"}],"stateMutability":"view"},{"type":"function","name":"balanceOf","inputs":[{"name":"account","type":"address","internalType":"address"}],"outputs":[{"name":"","type":"uint256","internalType":"uint256"}],"stateMutability":"view"},{"type":"function","name":"burn","inputs":[{"name":"amount","type":"uint256","internalType":"uint256"}],"outputs":[],"stateMutability":"nonpayable"},{"type":"function","name":"decimals","inputs":[],"outputs":[{"name":"","type":"uint8","internalType":"uint8"}],"stateMutability":"view"},{"type":"function","name":"eip712Domain","inputs":[],"outputs":[{"name":"fields","type":"bytes1","internalType":"bytes1"},{"name":"name","type":"string","internalType":"string"},{"name":"version","type":"string","internalType":"string"},{"name":"chainId","type":"uint256","internalType":"uint256"},{"name":"verifyingContract","type":"address","internalType":"address"},{"name":"salt","type":"bytes32","internalType":"bytes32"},{"name":"extensions","type":"uint256[]","internalType":"uint256[]"}],"stateMutability":"view"},{"type":"function","name":"mint","inputs":[{"name":"to","type":"address","internalType":"address"},{"name":"amount","type":"uint256","internalType":"uint256"}],"outputs":[],"stateMutability":"nonpayable"},{"type":"function","name":"name","inputs":[],"outputs":[{"name":"","type":"string","internalType":"string"}],"stateMutability":"view"},{"type":"function","name":"owner","inputs":[],"outputs":[{"name":"","type":"address","internalType":"address"}],"stateMutability":"view"},{"type":"function","name":"receiveWithAuthorization","inputs":[{"name":"from","type":"address","internalType":"address"},{"name":"to","type":"address","internalType":"address"},{"name":"value","type":"uint256","internalType":"uint256"},{"name":"validAfter","type":"uint256","internalType":"uint256"},{"name":"validBefore","type":"uint256","internalType":"uint256"},{"name":"nonce","type":"bytes32","internalType":"bytes32"},{"name":"v","type":"uint8","internalType":"uint8"},{"name":"r","type":"bytes32","internalType":"bytes32"},{"name":"s","type":"bytes32","internalType":"bytes32"}],"outputs":[],"stateMutability":"nonpayable"},{"type":"function","name":"renounceOwnership","inputs":[],"outputs":[],"stateMutability":"nonpayable"},{"type":"function","name":"symbol","inputs":[],"outputs":[{"name":"","type":"string","internalType":"string"}],"stateMutability":"view"},{"type":"function","name":"totalSupply","inputs":[],"outputs":[{"name":"","type":"uint256","internalType":"uint256"}],"stateMutability":"view"},{"type":"function","name":"transfer","inputs":[{"name":"to","type":"address","internalType":"address"},{"name":"value","type":"uint256","internalType":"uint256"}],"outputs":[{"name":"","type":"bool","internalType":"bool"}],"stateMutability":"nonpayable"},{"type":"function","name":"transferFrom","inputs":[{"name":"from","type":"address","internalType":"address"},{"name":"to","type":"address","internalType":"address"},{"name":"value","type":"uint256","internalType":"uint256"}],"outputs":[{"name":"","type":"bool","internalType":"bool"}],"stateMutability":"nonpayable"},{"type":"function","name":"transferOwnership","inputs":[{"name":"newOwner","type":"address","internalType":"address"}],"outputs":[],"stateMutability":"nonpayable"},{"type":"function","name":"transferWithAuthorization","inputs":[{"name":"from","type":"address","internalType":"address"},{"name":"to","type":"address","internalType":"address"},{"name":"value","type":"uint256","internalType":"uint256"},{"name":"validAfter","type":"uint256","internalType":"uint256"},{"name":"validBefore","type":"uint256","internalType":"uint256"},{"name":"nonce","type":"bytes32","internalType":"bytes32"},{"name":"v","type":"uint8","internalType":"uint8"},{"name":"r","type":"bytes32","internalType":"bytes32"},{"name":"s","type":"bytes32","internalType":"bytes32"}],"outputs":[],"stateMutability":"nonpayable"},{"type":"event","name":"Approval","inputs":[{"name":"owner","type":"address","indexed":true,"internalType":"address"},{"name":"spender","type":"address","indexed":true,"internalType":"address"},{"name":"value","type":"uint256","indexed":false,"internalType":"uint256"}],"anonymous":false},{"type":"event","name":"AuthorizationUsed","inputs":[{"name":"authorizer","type":"address","indexed":true,"internalType":"address"},{"name":"nonce","type":"bytes32","indexed":true,"internalType":"bytes32"}],"anonymous":false},{"type":"event","name":"EIP712DomainChanged","inputs":[],"anonymous":false},{"type":"event","name":"OwnershipTransferred","inputs":[{"name":"previousOwner","type":"address","indexed":true,"internalType":"address"},{"name":"newOwner","type":"address","indexed":true,"internalType":"address"}],"anonymous":false},{"type":"event","name":"Transfer","inputs":[{"name":"from","type":"address","indexed":true,"internalType":"address"},{"name":"to","type":"address","indexed":true,"internalType":"address"},{"name":"value","type":"uint256","indexed":false,"internalType":"uint256"}],"anonymous":false},{"type":"error","name":"ECDSAInvalidSignature","inputs":[]},{"type":"error","name":"ECDSAInvalidSignatureLength","inputs":[{"name":"length","type":"uint256","internalType":"uint256"}]},{"type":"error","name":"ECDSAInvalidSignatureS","inputs":[{"name":"s","type":"bytes32","internalType":"bytes32"}]},{"type":"error","name":"ERC20InsufficientAllowance","inputs":[{"name":"spender","type":"address","internalType":"address"},{"name":"allowance","type":"uint256","internalType":"uint256"},{"name":"needed","type":"uint256","internalType":"uint256"}]},{"type":"error","name":"ERC20InsufficientBalance","inputs":[{"name":"sender","type":"address","internalType":"address"},{"name":"balance","type":"uint256","internalType":"uint256"},{"name":"needed","type":"uint256","internalType":"uint256"}]},{"type":"error","name":"ERC20InvalidApprover","inputs":[{"name":"approver","type":"address","internalType":"address"}]},{"type":"error","name":"ERC20InvalidReceiver","inputs":[{"name":"receiver","type":"address","internalType":"address"}]},{"type":"error","name":"ERC20InvalidSender","inputs":[{"name":"sender","type":"address","internalType":"address"}]},{"type":"error","name":"ERC20InvalidSpender","inputs":[{"name":"spender","type":"address","internalType":"address"}]},{"type":"error","name":"InvalidShortString","inputs":[]},{"type":"error","name":"OwnableInvalidOwner","inputs":[{"name":"owner","type":"address","internalType":"address"}]},{"type":"error","name":"OwnableUnauthorizedAccount","inputs":[{"name":"account","type":"address","internalType":"address"}]},{"type":"error","name":"StringTooLong","inputs":[{"name":"str","type":"string","internalType":"string"}]}],"bytecode":{"object":"0x610160604052348015610010575f5ffd5b5060405161370e38038061370e833981810160405281019061003291906107f2565b826040518060400160405280600181526020017f3100000000000000000000000000000000000000000000000000000000000000815250338585816003908161007b9190610a81565b50806004908161008b9190610a81565b5050505f73ffffffffffffffffffffffffffffffffffffffff168173ffffffffffffffffffffffffffffffffffffffff16036100fe575f6040517f1e4fbdf70000000000000000000000000000000000000000000000000000000081526004016100f59190610b8f565b60405180910390fd5b61010d816101f460201b60201c565b506101226006836102b760201b90919060201c565b610120818152505061013e6007826102b760201b90919060201c565b6101408181525050818051906020012060e08181525050808051906020012061010081815250504660a0818152505061017b61030460201b60201c565b608081815250503073ffffffffffffffffffffffffffffffffffffffff1660c08173ffffffffffffffffffffffffffffffffffffffff168152505050506101ec336101ca61035e60201b60201c565b600a6101d69190610d10565b836101e19190610d5a565b61036660201b60201c565b505050610f8f565b5f60055f9054906101000a900473ffffffffffffffffffffffffffffffffffffffff1690508160055f6101000a81548173ffffffffffffffffffffffffffffffffffffffff021916908373ffffffffffffffffffffffffffffffffffffffff1602179055508173ffffffffffffffffffffffffffffffffffffffff168173ffffffffffffffffffffffffffffffffffffffff167f8be0079c531659141344cd1fd0a4f28419497f9722a3daafe3b4186f6b6457e060405160405180910390a35050565b5f6020835110156102d8576102d1836103eb60201b60201c565b90506102fe565b826102e88361045060201b60201c565b5f0190816102f69190610a81565b5060ff5f1b90505b92915050565b5f7f8b73c3c69bb8fe3d512ecc4cf759cc79239f7b179b0ffacaa9a75d522b39400f60e051610100514630604051602001610343959493929190610dc2565b60405160208183030381529060405280519060200120905090565b5f6012905090565b5f73ffffffffffffffffffffffffffffffffffffffff168273ffffffffffffffffffffffffffffffffffffffff16036103d6575f6040517fec442f050000000000000000000000000000000000000000000000000000000081526004016103cd9190610b8f565b60405180910390fd5b6103e75f838361045960201b60201c565b5050565b5f5f829050601f8151111561043757826040517f305a27a900000000000000000000000000000000000000000000000000000000815260040161042e9190610e5b565b60405180910390fd5b80518161044390610ea8565b5f1c175f1b915050919050565b5f819050919050565b5f73ffffffffffffffffffffffffffffffffffffffff168373ffffffffffffffffffffffffffffffffffffffff16036104a9578060025f82825461049d9190610f0e565b92505081905550610577565b5f5f5f8573ffffffffffffffffffffffffffffffffffffffff1673ffffffffffffffffffffffffffffffffffffffff1681526020019081526020015f2054905081811015610532578381836040517fe450d38c00000000000000000000000000000000000000000000000000000000815260040161052993929190610f41565b60405180910390fd5b8181035f5f8673ffffffffffffffffffffffffffffffffffffffff1673ffffffffffffffffffffffffffffffffffffffff1681526020019081526020015f2081905550505b5f73ffffffffffffffffffffffffffffffffffffffff168273ffffffffffffffffffffffffffffffffffffffff16036105be578060025f8282540392505081905550610608565b805f5f8473ffffffffffffffffffffffffffffffffffffffff1673ffffffffffffffffffffffffffffffffffffffff1681526020019081526020015f205f82825401925050819055505b8173ffffffffffffffffffffffffffffffffffffffff168373ffffffffffffffffffffffffffffffffffffffff167fddf252ad1be2c89b69c2b068fc378daa952ba7f163c4a11628f55a4df523b3ef836040516106659190610f76565b60405180910390a3505050565b5f604051905090565b5f5ffd5b5f5ffd5b5f5ffd5b5f5ffd5b5f601f19601f8301169050919050565b7f4e487b71000000000000000000000000000000000000000000000000000000005f52604160045260245ffd5b6106d18261068b565b810181811067ffffffffffffffff821117156106f0576106ef61069b565b5b80604052505050565b5f610702610672565b905061070e82826106c8565b919050565b5f67ffffffffffffffff82111561072d5761072c61069b565b5b6107368261068b565b9050602081019050919050565b8281835e5f83830152505050565b5f61076361075e84610713565b6106f9565b90508281526020810184848401111561077f5761077e610687565b5b61078a848285610743565b509392505050565b5f82601f8301126107a6576107a5610683565b5b81516107b6848260208601610751565b91505092915050565b5f819050919050565b6107d1816107bf565b81146107db575f5ffd5b50565b5f815190506107ec816107c8565b92915050565b5f5f5f606084860312156108095761080861067b565b5b5f84015167ffffffffffffffff8111156108265761082561067f565b5b61083286828701610792565b935050602084015167ffffffffffffffff8111156108535761085261067f565b5b61085f86828701610792565b9250506040610870868287016107de565b9150509250925092565b5f81519050919050565b7f4e487b71000000000000000000000000000000000000000000000000000000005f52602260045260245ffd5b5f60028204905060018216806108c857607f821691505b6020821081036108db576108da610884565b5b50919050565b5f819050815f5260205f209050919050565b5f6020601f8301049050919050565b5f82821b905092915050565b5f6008830261093d7fffffffffffffffffffffffffffffffffffffffffffffffffffffffffffffffff82610902565b6109478683610902565b95508019841693508086168417925050509392505050565b5f819050919050565b5f61098261097d610978846107bf565b61095f565b6107bf565b9050919050565b5f819050919050565b61099b83610968565b6109af6109a782610989565b84845461090e565b825550505050565b5f5f905090565b6109c66109b7565b6109d1818484610992565b505050565b5b818110156109f4576109e95f826109be565b6001810190506109d7565b5050565b601f821115610a3957610a0a816108e1565b610a13846108f3565b81016020851015610a22578190505b610a36610a2e856108f3565b8301826109d6565b50505b505050565b5f82821c905092915050565b5f610a595f1984600802610a3e565b1980831691505092915050565b5f610a718383610a4a565b9150826002028217905092915050565b610a8a8261087a565b67ffffffffffffffff811115610aa357610aa261069b565b5b610aad82546108b1565b610ab88282856109f8565b5f60209050601f831160018114610ae9575f8415610ad7578287015190505b610ae18582610a66565b865550610b48565b601f198416610af7866108e1565b5f5b82811015610b1e57848901518255600182019150602085019450602081019050610af9565b86831015610b3b5784890151610b37601f891682610a4a565b8355505b6001600288020188555050505b505050505050565b5f73ffffffffffffffffffffffffffffffffffffffff82169050919050565b5f610b7982610b50565b9050919050565b610b8981610b6f565b82525050565b5f602082019050610ba25f830184610b80565b92915050565b7f4e487b71000000000000000000000000000000000000000000000000000000005f52601160045260245ffd5b5f8160011c9050919050565b5f5f8291508390505b6001851115610c2a57808604811115610c0657610c05610ba8565b5b6001851615610c155780820291505b8081029050610c2385610bd5565b9450610bea565b94509492505050565b5f82610c425760019050610cfd565b81610c4f575f9050610cfd565b8160018114610c655760028114610c6f57610c9e565b6001915050610cfd565b60ff841115610c8157610c80610ba8565b5b8360020a915084821115610c9857610c97610ba8565b5b50610cfd565b5060208310610133831016604e8410600b8410161715610cd35782820a905083811115610cce57610ccd610ba8565b5b610cfd565b610ce08484846001610be1565b92509050818404811115610cf757610cf6610ba8565b5b81810290505b9392505050565b5f60ff82169050919050565b5f610d1a826107bf565b9150610d2583610d04565b9250610d527fffffffffffffffffffffffffffffffffffffffffffffffffffffffffffffffff8484610c33565b905092915050565b5f610d64826107bf565b9150610d6f836107bf565b9250828202610d7d816107bf565b91508282048414831517610d9457610d93610ba8565b5b5092915050565b5f819050919050565b610dad81610d9b565b82525050565b610dbc816107bf565b82525050565b5f60a082019050610dd55f830188610da4565b610de26020830187610da4565b610def6040830186610da4565b610dfc6060830185610db3565b610e096080830184610b80565b9695505050505050565b5f82825260208201905092915050565b5f610e2d8261087a565b610e378185610e13565b9350610e47818560208601610743565b610e508161068b565b840191505092915050565b5f6020820190508181035f830152610e738184610e23565b905092915050565b5f81519050919050565b5f819050602082019050919050565b5f610e9f8251610d9b565b80915050919050565b5f610eb282610e7b565b82610ebc84610e85565b9050610ec781610e94565b92506020821015610f0757610f027fffffffffffffffffffffffffffffffffffffffffffffffffffffffffffffffff83602003600802610902565b831692505b5050919050565b5f610f18826107bf565b9150610f23836107bf565b9250828201905080821115610f3b57610f3a610ba8565b5b92915050565b5f606082019050610f545f830186610b80565b610f616020830185610db3565b610f6e6040830184610db3565b949350505050565b5f602082019050610f895f830184610db3565b92915050565b60805160a05160c05160e05161010051610120516101405161272e610fe05f395f61129b01525f61126001525f611b9f01525f611b7e01525f6117ac01525f61180201525f61182b015261272e5ff3fe608060405234801561000f575f5ffd5b506004361061012a575f3560e01c806384b0196e116100ab578063dd62ed3e1161006f578063dd62ed3e14610326578063e3ee160e14610356578063e94a010214610372578063ef55bec6146103a2578063f2fde38b146103be5761012a565b806384b0196e146102785780638da5cb5b1461029c57806395d89b41146102ba578063a0cc6a68146102d8578063a9059cbb146102f65761012a565b806340c10f19116100f257806340c10f19146101e857806342966c681461020457806370a0823114610220578063715018a6146102505780637f2eecc31461025a5761012a565b806306fdde031461012e578063095ea7b31461014c57806318160ddd1461017c57806323b872dd1461019a578063313ce567146101ca575b5f5ffd5b6101366103da565b6040516101439190611cad565b60405180910390f35b61016660048036038101906101619190611d5e565b61046a565b6040516101739190611db6565b60405180910390f35b61018461048c565b6040516101919190611dde565b60405180910390f35b6101b460048036038101906101af9190611df7565b610495565b6040516101c19190611db6565b60405180910390f35b6101d26104c3565b6040516101df9190611e62565b60405180910390f35b61020260048036038101906101fd9190611d5e565b6104cb565b005b61021e60048036038101906102199190611e7b565b6104e1565b005b61023a60048036038101906102359190611ea6565b6104ee565b6040516102479190611dde565b60405180910390f35b610258610533565b005b610262610546565b60405161026f9190611ee9565b60405180910390f35b61028061056a565b6040516102939796959493929190612002565b60405180910390f35b6102a461060f565b6040516102b19190612084565b60405180910390f35b6102c2610637565b6040516102cf9190611cad565b60405180910390f35b6102e06106c7565b6040516102ed9190611ee9565b60405180910390f35b610310600480360381019061030b9190611d5e565b6106eb565b60405161031d9190611db6565b60405180910390f35b610340600480360381019061033b919061209d565b61070d565b60405161034d9190611dde565b60405180910390f35b610370600480360381019061036b919061212f565b61078f565b005b61038c600480360381019061038791906121f3565b610a57565b6040516103999190611db6565b60405180910390f35b6103bc60048036038101906103b7919061212f565b610ab9565b005b6103d860048036038101906103d39190611ea6565b610def565b005b6060600380546103e99061225e565b80601f01602080910402602001604051908101604052809291908181526020018280546104159061225e565b80156104605780601f1061043757610100808354040283529160200191610460565b820191905f5260205f20905b81548152906001019060200180831161044357829003601f168201915b5050505050905090565b5f5f610474610e73565b9050610481818585610e7a565b600191505092915050565b5f600254905090565b5f5f61049f610e73565b90506104ac858285610e8c565b6104b7858585610f1f565b60019150509392505050565b5f6012905090565b6104d361100f565b6104dd8282611096565b5050565b6104eb3382611115565b50565b5f5f5f8373ffffffffffffffffffffffffffffffffffffffff1673ffffffffffffffffffffffffffffffffffffffff1681526020019081526020015f20549050919050565b61053b61100f565b6105445f611194565b565b7fd099cc98ef71107a616c4f0f941f04c322d8e254fe26b3c6668db87aae413de881565b5f6060805f5f5f606061057b611257565b610583611292565b46305f5f1b5f67ffffffffffffffff8111156105a2576105a161228e565b5b6040519080825280602002602001820160405280156105d05781602001602082028036833780820191505090505b507f0f00000000000000000000000000000000000000000000000000000000000000959493929190965096509650965096509650965090919293949596565b5f60055f9054906101000a900473ffffffffffffffffffffffffffffffffffffffff16905090565b6060600480546106469061225e565b80601f01602080910402602001604051908101604052809291908181526020018280546106729061225e565b80156106bd5780601f10610694576101008083540402835291602001916106bd565b820191905f5260205f20905b8154815290600101906020018083116106a057829003601f168201915b5050505050905090565b7f7c7c6cdb67a18743f49ec6fa9b35f50d52ed05cbed4cc592e13b44501c1a226781565b5f5f6106f5610e73565b9050610702818585610f1f565b600191505092915050565b5f60015f8473ffffffffffffffffffffffffffffffffffffffff1673ffffffffffffffffffffffffffffffffffffffff1681526020019081526020015f205f8373ffffffffffffffffffffffffffffffffffffffff1673ffffffffffffffffffffffffffffffffffffffff1681526020019081526020015f2054905092915050565b8542116107d1576040517f08c379a00000000000000000000000000000000000000000000000000000000081526004016107c89061232b565b60405180910390fd5b844210610813576040517f08c379a000000000000000000000000000000000000000000000000000000000815260040161080a906123b9565b60405180910390fd5b60085f8a73ffffffffffffffffffffffffffffffffffffffff1673ffffffffffffffffffffffffffffffffffffffff1681526020019081526020015f205f8581526020019081526020015f205f9054906101000a900460ff16156108ac576040517f08c379a00000000000000000000000000000000000000000000000000000000081526004016108a390612421565b60405180910390fd5b5f7f7c7c6cdb67a18743f49ec6fa9b35f50d52ed05cbed4cc592e13b44501c1a22678a8a8a8a8a8a6040516020016108ea979695949392919061243f565b6040516020818303038152906040528051906020012090505f61090c826112cd565b90505f610926868686856112e6909392919063ffffffff16565b90508b73ffffffffffffffffffffffffffffffffffffffff168173ffffffffffffffffffffffffffffffffffffffff1614610996576040517f08c379a000000000000000000000000000000000000000000000000000000000815260040161098d906124f6565b60405180910390fd5b600160085f8e73ffffffffffffffffffffffffffffffffffffffff1673ffffffffffffffffffffffffffffffffffffffff1681526020019081526020015f205f8981526020019081526020015f205f6101000a81548160ff021916908315150217905550868c73ffffffffffffffffffffffffffffffffffffffff167f98de503528ee59b575ef0c0a2576a82497bfc029a5685b209e9ec333479b10a560405160405180910390a3610a498c8c8c610f1f565b505050505050505050505050565b5f60085f8473ffffffffffffffffffffffffffffffffffffffff1673ffffffffffffffffffffffffffffffffffffffff1681526020019081526020015f205f8381526020019081526020015f205f9054906101000a900460ff16905092915050565b3373ffffffffffffffffffffffffffffffffffffffff168873ffffffffffffffffffffffffffffffffffffffff1614610b27576040517f08c379a0000000000000000000000000000000000000000000000000000000008152600401610b1e90612584565b60405180910390fd5b854211610b69576040517f08c379a0000000000000000000000000000000000000000000000000000000008152600401610b609061232b565b60405180910390fd5b844210610bab576040517f08c379a0000000000000000000000000000000000000000000000000000000008152600401610ba2906123b9565b60405180910390fd5b60085f8a73ffffffffffffffffffffffffffffffffffffffff1673ffffffffffffffffffffffffffffffffffffffff1681526020019081526020015f205f8581526020019081526020015f205f9054906101000a900460ff1615610c44576040517f08c379a0000000000000000000000000000000000000000000000000000000008152600401610c3b90612421565b60405180910390fd5b5f7fd099cc98ef71107a616c4f0f941f04c322d8e254fe26b3c6668db87aae413de88a8a8a8a8a8a604051602001610c82979695949392919061243f565b6040516020818303038152906040528051906020012090505f610ca4826112cd565b90505f610cbe868686856112e6909392919063ffffffff16565b90508b73ffffffffffffffffffffffffffffffffffffffff168173ffffffffffffffffffffffffffffffffffffffff1614610d2e576040517f08c379a0000000000000000000000000000000000000000000000000000000008152600401610d25906124f6565b60405180910390fd5b600160085f8e73ffffffffffffffffffffffffffffffffffffffff1673ffffffffffffffffffffffffffffffffffffffff1681526020019081526020015f205f8981526020019081526020015f205f6101000a81548160ff021916908315150217905550868c73ffffffffffffffffffffffffffffffffffffffff167f98de503528ee59b575ef0c0a2576a82497bfc029a5685b209e9ec333479b10a560405160405180910390a3610de18c8c8c610f1f565b505050505050505050505050565b610df761100f565b5f73ffffffffffffffffffffffffffffffffffffffff168173ffffffffffffffffffffffffffffffffffffffff1603610e67575f6040517f1e4fbdf7000000000000000000000000000000000000000000000000000000008152600401610e5e9190612084565b60405180910390fd5b610e7081611194565b50565b5f33905090565b610e878383836001611314565b505050565b5f610e97848461070d565b90507fffffffffffffffffffffffffffffffffffffffffffffffffffffffffffffffff811015610f195781811015610f0a578281836040517ffb8f41b2000000000000000000000000000000000000000000000000000000008152600401610f01939291906125a2565b60405180910390fd5b610f1884848484035f611314565b5b50505050565b5f73ffffffffffffffffffffffffffffffffffffffff168373ffffffffffffffffffffffffffffffffffffffff1603610f8f575f6040517f96c6fd1e000000000000000000000000000000000000000000000000000000008152600401610f869190612084565b60405180910390fd5b5f73ffffffffffffffffffffffffffffffffffffffff168273ffffffffffffffffffffffffffffffffffffffff1603610fff575f6040517fec442f05000000000000000000000000000000000000000000000000000000008152600401610ff69190612084565b60405180910390fd5b61100a8383836114e3565b505050565b611017610e73565b73ffffffffffffffffffffffffffffffffffffffff1661103561060f565b73ffffffffffffffffffffffffffffffffffffffff161461109457611058610e73565b6040517f118cdaa700000000000000000000000000000000000000000000000000000000815260040161108b9190612084565b60405180910390fd5b565b5f73ffffffffffffffffffffffffffffffffffffffff168273ffffffffffffffffffffffffffffffffffffffff1603611106575f6040517fec442f050000000000000000000000000000000000000000000000000000000081526004016110fd9190612084565b60405180910390fd5b6111115f83836114e3565b5050565b5f73ffffffffffffffffffffffffffffffffffffffff168273ffffffffffffffffffffffffffffffffffffffff1603611185575f6040517f96c6fd1e00000000000000000000000000000000000000000000000000000000815260040161117c9190612084565b60405180910390fd5b611190825f836114e3565b5050565b5f60055f9054906101000a900473ffffffffffffffffffffffffffffffffffffffff1690508160055f6101000a81548173ffffffffffffffffffffffffffffffffffffffff021916908373ffffffffffffffffffffffffffffffffffffffff1602179055508173ffffffffffffffffffffffffffffffffffffffff168173ffffffffffffffffffffffffffffffffffffffff167f8be0079c531659141344cd1fd0a4f28419497f9722a3daafe3b4186f6b6457e060405160405180910390a35050565b606061128d60067f00000000000000000000000000000000000000000000000000000000000000006116fc90919063ffffffff16565b905090565b60606112c860077f00000000000000000000000000000000000000000000000000000000000000006116fc90919063ffffffff16565b905090565b5f6112df6112d96117a9565b8361185f565b9050919050565b5f5f5f5f6112f68888888861189f565b9250925092506113068282611986565b829350505050949350505050565b5f73ffffffffffffffffffffffffffffffffffffffff168473ffffffffffffffffffffffffffffffffffffffff1603611384575f6040517fe602df0500000000000000000000000000000000000000000000000000000000815260040161137b9190612084565b60405180910390fd5b5f73ffffffffffffffffffffffffffffffffffffffff168373ffffffffffffffffffffffffffffffffffffffff16036113f4575f6040517f94280d620000000000000000000000000000000000000000000000000000000081526004016113eb9190612084565b60405180910390fd5b8160015f8673ffffffffffffffffffffffffffffffffffffffff1673ffffffffffffffffffffffffffffffffffffffff1681526020019081526020015f205f8573ffffffffffffffffffffffffffffffffffffffff1673ffffffffffffffffffffffffffffffffffffffff1681526020019081526020015f208190555080156114dd578273ffffffffffffffffffffffffffffffffffffffff168473ffffffffffffffffffffffffffffffffffffffff167f8c5be1e5ebec7d5bd14f71427d1e84f3dd0314c0f7b2291e5b200ac8c7c3b925846040516114d49190611dde565b60405180910390a35b50505050565b5f73ffffffffffffffffffffffffffffffffffffffff168373ffffffffffffffffffffffffffffffffffffffff1603611533578060025f8282546115279190612604565b92505081905550611601565b5f5f5f8573ffffffffffffffffffffffffffffffffffffffff1673ffffffffffffffffffffffffffffffffffffffff1681526020019081526020015f20549050818110156115bc578381836040517fe450d38c0000000000000000000000000000000000000000000000000000000081526004016115b3939291906125a2565b60405180910390fd5b8181035f5f8673ffffffffffffffffffffffffffffffffffffffff1673ffffffffffffffffffffffffffffffffffffffff1681526020019081526020015f2081905550505b5f73ffffffffffffffffffffffffffffffffffffffff168273ffffffffffffffffffffffffffffffffffffffff1603611648578060025f8282540392505081905550611692565b805f5f8473ffffffffffffffffffffffffffffffffffffffff1673ffffffffffffffffffffffffffffffffffffffff1681526020019081526020015f205f82825401925050819055505b8173ffffffffffffffffffffffffffffffffffffffff168373ffffffffffffffffffffffffffffffffffffffff167fddf252ad1be2c89b69c2b068fc378daa952ba7f163c4a11628f55a4df523b3ef836040516116ef9190611dde565b60405180910390a3505050565b606060ff5f1b83146117185761171183611ae8565b90506117a3565b8180546117249061225e565b80601f01602080910402602001604051908101604052809291908181526020018280546117509061225e565b801561179b5780601f106117725761010080835404028352916020019161179b565b820191905f5260205f20905b81548152906001019060200180831161177e57829003601f168201915b505050505090505b92915050565b5f7f000000000000000000000000000000000000000000000000000000000000000073ffffffffffffffffffffffffffffffffffffffff163073ffffffffffffffffffffffffffffffffffffffff1614801561182457507f000000000000000000000000000000000000000000000000000000000000000046145b15611851577f0000000000000000000000000000000000000000000000000000000000000000905061185c565b611859611b5a565b90505b90565b5f6040517f190100000000000000000000000000000000000000000000000000000000000081528360028201528260228201526042812091505092915050565b5f5f5f7f7fffffffffffffffffffffffffffffff5d576e7357a4501ddfe92f46681b20a0845f1c11156118db575f60038592509250925061197c565b5f6001888888886040515f81526020016040526040516118fe9493929190612637565b6020604051602081039080840390855afa15801561191e573d5f5f3e3d5ffd5b5050506020604051035190505f73ffffffffffffffffffffffffffffffffffffffff168173ffffffffffffffffffffffffffffffffffffffff160361196f575f60015f5f1b9350935093505061197c565b805f5f5f1b935093509350505b9450945094915050565b5f60038111156119995761199861267a565b5b8260038111156119ac576119ab61267a565b5b0315611ae457600160038111156119c6576119c561267a565b5b8260038111156119d9576119d861267a565b5b03611a10576040517ff645eedf00000000000000000000000000000000000000000000000000000000815260040160405180910390fd5b60026003811115611a2457611a2361267a565b5b826003811115611a3757611a3661267a565b5b03611a7b57805f1c6040517ffce698f7000000000000000000000000000000000000000000000000000000008152600401611a729190611dde565b60405180910390fd5b600380811115611a8e57611a8d61267a565b5b826003811115611aa157611aa061267a565b5b03611ae357806040517fd78bce0c000000000000000000000000000000000000000000000000000000008152600401611ada9190611ee9565b60405180910390fd5b5b5050565b60605f611af483611bef565b90505f602067ffffffffffffffff811115611b1257611b1161228e565b5b6040519080825280601f01601f191660200182016040528015611b445781602001600182028036833780820191505090505b5090508181528360208201528092505050919050565b5f7f8b73c3c69bb8fe3d512ecc4cf759cc79239f7b179b0ffacaa9a75d522b39400f7f00000000000000000000000000000000000000000000000000000000000000007f00000000000000000000000000000000000000000000000000000000000000004630604051602001611bd49594939291906126a7565b60405160208183030381529060405280519060200120905090565b5f5f60ff835f1c169050601f811115611c34576040517fb3512b0c00000000000000000000000000000000000000000000000000000000815260040160405180910390fd5b80915050919050565b5f81519050919050565b5f82825260208201905092915050565b8281835e5f83830152505050565b5f601f19601f8301169050919050565b5f611c7f82611c3d565b611c898185611c47565b9350611c99818560208601611c57565b611ca281611c65565b840191505092915050565b5f6020820190508181035f830152611cc58184611c75565b905092915050565b5f5ffd5b5f73ffffffffffffffffffffffffffffffffffffffff82169050919050565b5f611cfa82611cd1565b9050919050565b611d0a81611cf0565b8114611d14575f5ffd5b50565b5f81359050611d2581611d01565b92915050565b5f819050919050565b611d3d81611d2b565b8114611d47575f5ffd5b50565b5f81359050611d5881611d34565b92915050565b5f5f60408385031215611d7457611d73611ccd565b5b5f611d8185828601611d17565b9250506020611d9285828601611d4a565b9150509250929050565b5f8115159050919050565b611db081611d9c565b82525050565b5f602082019050611dc95f830184611da7565b92915050565b611dd881611d2b565b82525050565b5f602082019050611df15f830184611dcf565b92915050565b5f5f5f60608486031215611e0e57611e0d611ccd565b5b5f611e1b86828701611d17565b9350506020611e2c86828701611d17565b9250506040611e3d86828701611d4a565b9150509250925092565b5f60ff82169050919050565b611e5c81611e47565b82525050565b5f602082019050611e755f830184611e53565b92915050565b5f60208284031215611e9057611e8f611ccd565b5b5f611e9d84828501611d4a565b91505092915050565b5f60208284031215611ebb57611eba611ccd565b5b5f611ec884828501611d17565b91505092915050565b5f819050919050565b611ee381611ed1565b82525050565b5f602082019050611efc5f830184611eda565b92915050565b5f7fff0000000000000000000000000000000000000000000000000000000000000082169050919050565b611f3681611f02565b82525050565b611f4581611cf0565b82525050565b5f81519050919050565b5f82825260208201905092915050565b5f819050602082019050919050565b611f7d81611d2b565b82525050565b5f611f8e8383611f74565b60208301905092915050565b5f602082019050919050565b5f611fb082611f4b565b611fba8185611f55565b9350611fc583611f65565b805f5b83811015611ff5578151611fdc8882611f83565b9750611fe783611f9a565b925050600181019050611fc8565b5085935050505092915050565b5f60e0820190506120155f83018a611f2d565b81810360208301526120278189611c75565b9050818103604083015261203b8188611c75565b905061204a6060830187611dcf565b6120576080830186611f3c565b61206460a0830185611eda565b81810360c08301526120768184611fa6565b905098975050505050505050565b5f6020820190506120975f830184611f3c565b92915050565b5f5f604083850312156120b3576120b2611ccd565b5b5f6120c085828601611d17565b92505060206120d185828601611d17565b9150509250929050565b6120e481611ed1565b81146120ee575f5ffd5b50565b5f813590506120ff816120db565b92915050565b61210e81611e47565b8114612118575f5ffd5b50565b5f8135905061212981612105565b92915050565b5f5f5f5f5f5f5f5f5f6101208a8c03121561214d5761214c611ccd565b5b5f61215a8c828d01611d17565b995050602061216b8c828d01611d17565b985050604061217c8c828d01611d4a565b975050606061218d8c828d01611d4a565b965050608061219e8c828d01611d4a565b95505060a06121af8c828d016120f1565b94505060c06121c08c828d0161211b565b93505060e06121d18c828d016120f1565b9250506101006121e38c828d016120f1565b9150509295985092959850929598565b5f5f6040838503121561220957612208611ccd565b5b5f61221685828601611d17565b9250506020612227858286016120f1565b9150509250929050565b7f4e487b71000000000000000000000000000000000000000000000000000000005f52602260045260245ffd5b5f600282049050600182168061227557607f821691505b60208210810361228857612287612231565b5b50919050565b7f4e487b71000000000000000000000000000000000000000000000000000000005f52604160045260245ffd5b7f55534443436c6f6e653a20617574686f72697a6174696f6e206973206e6f74205f8201527f7965742076616c69640000000000000000000000000000000000000000000000602082015250565b5f612315602983611c47565b9150612320826122bb565b604082019050919050565b5f6020820190508181035f83015261234281612309565b9050919050565b7f55534443436c6f6e653a20617574686f72697a6174696f6e20697320657870695f8201527f7265640000000000000000000000000000000000000000000000000000000000602082015250565b5f6123a3602383611c47565b91506123ae82612349565b604082019050919050565b5f6020820190508181035f8301526123d081612397565b9050919050565b7f55534443436c6f6e653a20617574686f72697a6174696f6e20697320757365645f82015250565b5f61240b602083611c47565b9150612416826123d7565b602082019050919050565b5f6020820190508181035f830152612438816123ff565b9050919050565b5f60e0820190506124525f83018a611eda565b61245f6020830189611f3c565b61246c6040830188611f3c565b6124796060830187611dcf565b6124866080830186611dcf565b61249360a0830185611dcf565b6124a060c0830184611eda565b98975050505050505050565b7f55534443436c6f6e653a20696e76616c6964207369676e6174757265000000005f82015250565b5f6124e0601c83611c47565b91506124eb826124ac565b602082019050919050565b5f6020820190508181035f83015261250d816124d4565b9050919050565b7f55534443436c6f6e653a2063616c6c6572206d757374206265207468652070615f8201527f7965650000000000000000000000000000000000000000000000000000000000602082015250565b5f61256e602383611c47565b915061257982612514565b604082019050919050565b5f6020820190508181035f83015261259b81612562565b9050919050565b5f6060820190506125b55f830186611f3c565b6125c26020830185611dcf565b6125cf6040830184611dcf565b949350505050565b7f4e487b71000000000000000000000000000000000000000000000000000000005f52601160045260245ffd5b5f61260e82611d2b565b915061261983611d2b565b9250828201905080821115612631576126306125d7565b5b92915050565b5f60808201905061264a5f830187611eda565b6126576020830186611e53565b6126646040830185611eda565b6126716060830184611eda565b95945050505050565b7f4e487b71000000000000000000000000000000000000000000000000000000005f52602160045260245ffd5b5f60a0820190506126ba5f830188611eda565b6126c76020830187611eda565b6126d46040830186611eda565b6126e16060830185611dcf565b6126ee6080830184611f3c565b969550505050505056fea26469706673582212206c2c32e38e6e10eaecc477f3db9a4a14e43717b2603cd7f967c0e56f0c5d0c8b64736f6c634300081e0033","linkReferences":{}},"methodIdentifiers":{"RECEIVE_WITH_AUTHORIZATION_TYPEHASH()":"7f2eecc3","TRANSFER_WITH_AUTHORIZATION_TYPEHASH()":"a0cc6a68","allowance(address,address)":"dd62ed3e","approve(address,uint256)":"095ea7b3","authorizationState(address,bytes32)":"e94a0102","balanceOf(address)":"70a08231","burn(uint256)":"42966c68","decimals()":"313ce567","eip712Domain()":"84b0196e","mint(address,uint256)":"40c10f19","name()":"06fdde03","owner()":"8da5cb5b","receiveWithAuthorization(address,address,uint256,uint256,uint256,bytes32,uint8,bytes32,bytes32)":"ef55bec6","renounceOwnership()":"715018a6","symbol()":"95d89b41","totalSupply()":"18160ddd","transfer(address,uint256)":"a9059cbb","transferFrom(address,address,uint256)":"23b872dd","transferOwnership(address)":"f2fde38b","transferWithAuthorization(address,address,uint256,uint256,uint256,bytes32,uint8,bytes32,bytes32)":"e3ee160e"},"id":39}